{
  "_format": "hh-sol-artifact-1",
  "contractName": "Todo",
  "sourceName": "contracts/Todo.sol",
  "abi": [
    {
      "inputs": [
        {
          "internalType": "uint256",
          "name": "_taskIndex",
          "type": "uint256"
        }
      ],
      "name": "completeTask",
      "outputs": [],
      "stateMutability": "nonpayable",
      "type": "function"
    },
    {
      "inputs": [
        {
          "internalType": "uint256",
          "name": "_taskIndex",
          "type": "uint256"
        }
      ],
      "name": "deleteTask",
      "outputs": [],
      "stateMutability": "view",
      "type": "function"
    },
    {
      "inputs": [],
      "name": "getTask",
      "outputs": [
        {
          "components": [
            {
              "internalType": "string",
              "name": "task",
              "type": "string"
            },
            {
              "internalType": "uint256",
              "name": "deadline",
              "type": "uint256"
            },
            {
              "internalType": "bool",
              "name": "isCompleted",
              "type": "bool"
            }
          ],
          "internalType": "struct Todo.Task[]",
          "name": "",
          "type": "tuple[]"
        }
      ],
      "stateMutability": "view",
      "type": "function"
    },
    {
      "inputs": [
        {
          "internalType": "string",
          "name": "_task",
          "type": "string"
        },
        {
          "internalType": "uint256",
          "name": "_deadline",
          "type": "uint256"
        }
      ],
      "name": "setTask",
      "outputs": [],
      "stateMutability": "nonpayable",
      "type": "function"
    },
    {
      "inputs": [
        {
          "internalType": "uint256",
          "name": "_taskIndex",
          "type": "uint256"
        },
        {
          "internalType": "string",
          "name": "_task",
          "type": "string"
        }
      ],
      "name": "updateTask",
      "outputs": [],
      "stateMutability": "nonpayable",
      "type": "function"
    }
  ],
  "bytecode": "0x608060405234801561001057600080fd5b50610cce806100206000396000f3fe608060405234801561001057600080fd5b50600436106100575760003560e01c8063272e88bd1461005c578063560f31921461007857806386533f6c14610094578063a31662d2146100b0578063e1e29558146100ce575b600080fd5b610076600480360381019061007191906107fc565b6100ea565b005b610092600480360381019061008d919061085c565b610282565b005b6100ae60048036038101906100a99190610889565b6103b4565b005b6100b8610430565b6040516100c59190610abe565b60405180910390f35b6100e860048036038101906100e3919061085c565b610588565b005b6000339050600073ffffffffffffffffffffffffffffffffffffffff168173ffffffffffffffffffffffffffffffffffffffff16141561015f576040517f08c379a000000000000000000000000000000000000000000000000000000000815260040161015690610b63565b60405180910390fd5b6000808273ffffffffffffffffffffffffffffffffffffffff1673ffffffffffffffffffffffffffffffffffffffff168152602001908152602001600020604051806060016040528086868080601f016020809104026020016040519081016040528093929190818152602001838380828437600081840152601f19601f82011690508083019250505050505050815260200142856101fe9190610bb2565b8152602001600015158152509080600181540180825580915050600190039060005260206000209060030201600090919091909150600082015181600001908051906020019061024f92919061060b565b506020820151816001015560408201518160020160006101000a81548160ff021916908315150217905550505050505050565b60008060003373ffffffffffffffffffffffffffffffffffffffff1673ffffffffffffffffffffffffffffffffffffffff16815260200190815260200160002082815481106102d4576102d3610c08565b5b90600052602060002090600302016040518060600160405290816000820180546102fd90610c66565b80601f016020809104026020016040519081016040528092919081815260200182805461032990610c66565b80156103765780601f1061034b57610100808354040283529160200191610376565b820191906000526020600020905b81548152906001019060200180831161035957829003601f168201915b50505050508152602001600182015481526020016002820160009054906101000a900460ff16151515158152505090506103ae610691565b90505050565b60008060003373ffffffffffffffffffffffffffffffffffffffff1673ffffffffffffffffffffffffffffffffffffffff168152602001908152602001600020848154811061040657610405610c08565b5b9060005260206000209060030201905082828260000191906104299291906106b4565b5050505050565b606060008060003373ffffffffffffffffffffffffffffffffffffffff1673ffffffffffffffffffffffffffffffffffffffff168152602001908152602001600020905080805480602002602001604051908101604052809291908181526020016000905b8282101561057e57838290600052602060002090600302016040518060600160405290816000820180546104c890610c66565b80601f01602080910402602001604051908101604052809291908181526020018280546104f490610c66565b80156105415780601f1061051657610100808354040283529160200191610541565b820191906000526020600020905b81548152906001019060200180831161052457829003601f168201915b50505050508152602001600182015481526020016002820160009054906101000a900460ff16151515158152505081526020019060010190610495565b5050505091505090565b60008060003373ffffffffffffffffffffffffffffffffffffffff1673ffffffffffffffffffffffffffffffffffffffff16815260200190815260200160002082815481106105da576105d9610c08565b5b9060005260206000209060030201905060018160020160006101000a81548160ff0219169083151502179055505050565b82805461061790610c66565b90600052602060002090601f0160209004810192826106395760008555610680565b82601f1061065257805160ff1916838001178555610680565b82800160010185558215610680579182015b8281111561067f578251825591602001919060010190610664565b5b50905061068d919061073a565b5090565b604051806060016040528060608152602001600081526020016000151581525090565b8280546106c090610c66565b90600052602060002090601f0160209004810192826106e25760008555610729565b82601f106106fb57803560ff1916838001178555610729565b82800160010185558215610729579182015b8281111561072857823582559160200191906001019061070d565b5b509050610736919061073a565b5090565b5b8082111561075357600081600090555060010161073b565b5090565b600080fd5b600080fd5b600080fd5b600080fd5b600080fd5b60008083601f84011261078657610785610761565b5b8235905067ffffffffffffffff8111156107a3576107a2610766565b5b6020830191508360018202830111156107bf576107be61076b565b5b9250929050565b6000819050919050565b6107d9816107c6565b81146107e457600080fd5b50565b6000813590506107f6816107d0565b92915050565b60008060006040848603121561081557610814610757565b5b600084013567ffffffffffffffff8111156108335761083261075c565b5b61083f86828701610770565b93509350506020610852868287016107e7565b9150509250925092565b60006020828403121561087257610871610757565b5b6000610880848285016107e7565b91505092915050565b6000806000604084860312156108a2576108a1610757565b5b60006108b0868287016107e7565b935050602084013567ffffffffffffffff8111156108d1576108d061075c565b5b6108dd86828701610770565b92509250509250925092565b600081519050919050565b600082825260208201905092915050565b6000819050602082019050919050565b600081519050919050565b600082825260208201905092915050565b60005b8381101561094f578082015181840152602081019050610934565b8381111561095e576000848401525b50505050565b6000601f19601f8301169050919050565b600061098082610915565b61098a8185610920565b935061099a818560208601610931565b6109a381610964565b840191505092915050565b6109b7816107c6565b82525050565b60008115159050919050565b6109d2816109bd565b82525050565b600060608301600083015184820360008601526109f58282610975565b9150506020830151610a0a60208601826109ae565b506040830151610a1d60408601826109c9565b508091505092915050565b6000610a3483836109d8565b905092915050565b6000602082019050919050565b6000610a54826108e9565b610a5e81856108f4565b935083602082028501610a7085610905565b8060005b85811015610aac5784840389528151610a8d8582610a28565b9450610a9883610a3c565b925060208a01995050600181019050610a74565b50829750879550505050505092915050565b60006020820190508181036000830152610ad88184610a49565b905092915050565b600082825260208201905092915050565b7f63616e6e6f7420736574207461736b20746f20746865207a65726f206164647260008201527f6573730000000000000000000000000000000000000000000000000000000000602082015250565b6000610b4d602383610ae0565b9150610b5882610af1565b604082019050919050565b60006020820190508181036000830152610b7c81610b40565b9050919050565b7f4e487b7100000000000000000000000000000000000000000000000000000000600052601160045260246000fd5b6000610bbd826107c6565b9150610bc8836107c6565b9250827fffffffffffffffffffffffffffffffffffffffffffffffffffffffffffffffff03821115610bfd57610bfc610b83565b5b828201905092915050565b7f4e487b7100000000000000000000000000000000000000000000000000000000600052603260045260246000fd5b7f4e487b7100000000000000000000000000000000000000000000000000000000600052602260045260246000fd5b60006002820490506001821680610c7e57607f821691505b60208210811415610c9257610c91610c37565b5b5091905056fea2646970667358221220a5e139432ba2cfecf5675d0c679977cea8ac3ba27de1173073841406dfb93e8b64736f6c63430008090033",
  "linkReferences": {},
  "deployedLinkReferences": {}
}