{
  "_format": "hh-sol-artifact-1",
  "contractName": "Todo",
  "sourceName": "contracts/Todo.sol",
  "abi": [
    {
      "anonymous": false,
      "inputs": [
        {
          "indexed": true,
          "internalType": "address",
          "name": "user",
          "type": "address"
        },
        {
          "indexed": true,
          "internalType": "uint256",
          "name": "_taskIndex",
          "type": "uint256"
        }
      ],
      "name": "DeleteTask",
      "type": "event"
    },
    {
      "anonymous": false,
      "inputs": [
        {
          "indexed": true,
          "internalType": "address",
          "name": "user",
          "type": "address"
        },
        {
          "indexed": true,
          "internalType": "string",
          "name": "task",
          "type": "string"
        },
        {
          "indexed": true,
          "internalType": "uint256",
          "name": "deadline",
          "type": "uint256"
        }
      ],
      "name": "SetTask",
      "type": "event"
    },
    {
      "anonymous": false,
      "inputs": [
        {
          "indexed": true,
          "internalType": "address",
          "name": "user",
          "type": "address"
        },
        {
          "indexed": true,
          "internalType": "string",
          "name": "task",
          "type": "string"
        },
        {
          "indexed": true,
          "internalType": "uint256",
          "name": "taskIndex",
          "type": "uint256"
        }
      ],
      "name": "UpdateTask",
      "type": "event"
    },
    {
      "inputs": [
        {
          "internalType": "uint64",
          "name": "_taskIndex",
          "type": "uint64"
        }
      ],
      "name": "completeTask",
      "outputs": [],
      "stateMutability": "nonpayable",
      "type": "function"
    },
    {
      "inputs": [
        {
          "internalType": "uint64",
          "name": "_taskIndex",
          "type": "uint64"
        }
      ],
      "name": "deleteTask",
      "outputs": [],
      "stateMutability": "nonpayable",
      "type": "function"
    },
    {
      "inputs": [],
      "name": "getTask",
      "outputs": [
        {
          "components": [
            {
              "internalType": "bool",
              "name": "isCompleted",
              "type": "bool"
            },
            {
              "internalType": "string",
              "name": "task",
              "type": "string"
            },
            {
              "internalType": "uint256",
              "name": "deadline",
              "type": "uint256"
            }
          ],
          "internalType": "struct Todo.Task[]",
          "name": "",
          "type": "tuple[]"
        }
      ],
      "stateMutability": "view",
      "type": "function"
    },
    {
      "inputs": [
        {
          "internalType": "string",
          "name": "_task",
          "type": "string"
        },
        {
          "internalType": "uint256",
          "name": "_deadline",
          "type": "uint256"
        }
      ],
      "name": "setTask",
      "outputs": [],
      "stateMutability": "nonpayable",
      "type": "function"
    },
    {
      "inputs": [
        {
          "internalType": "uint64",
          "name": "_taskIndex",
          "type": "uint64"
        },
        {
          "internalType": "string",
          "name": "_task",
          "type": "string"
        }
      ],
      "name": "updateTask",
      "outputs": [],
      "stateMutability": "nonpayable",
      "type": "function"
    }
  ],
  "bytecode": "0x608060405234801561001057600080fd5b50610d7f806100206000396000f3fe608060405234801561001057600080fd5b50600436106100575760003560e01c8063272e88bd1461005c57806350b758c714610078578063a31662d214610094578063b6b63c7d146100b2578063fb3dc14d146100ce575b600080fd5b6100766004803603810190610071919061089a565b6100ea565b005b610092600480360381019061008d919061093a565b6102d3565b005b61009c6103bb565b6040516100a99190610b3c565b60405180910390f35b6100cc60048036038101906100c79190610b5e565b610513565b005b6100e860048036038101906100e3919061093a565b6105ff565b005b6000339050600073ffffffffffffffffffffffffffffffffffffffff168173ffffffffffffffffffffffffffffffffffffffff16141561015f576040517f08c379a000000000000000000000000000000000000000000000000000000000815260040161015690610c41565b60405180910390fd5b6000808273ffffffffffffffffffffffffffffffffffffffff1673ffffffffffffffffffffffffffffffffffffffff168152602001908152602001600020604051806060016040528060001515815260200186868080601f016020809104026020016040519081016040528093929190818152602001838380828437600081840152601f19601f82011690508083019250505050505050815260200184815250908060018154018082558091505060019003906000526020600020906003020160009091909190915060008201518160000160006101000a81548160ff021916908315150217905550602082015181600101908051906020019061026492919061068c565b50604082015181600201555050818484604051610282929190610ca0565b60405180910390208273ffffffffffffffffffffffffffffffffffffffff167f02de06586af8fb5f9a07a192964afface5b46dc2c026b25a084adb08e7caa17860405160405180910390a450505050565b6000803373ffffffffffffffffffffffffffffffffffffffff1673ffffffffffffffffffffffffffffffffffffffff1681526020019081526020016000208167ffffffffffffffff168154811061032d5761032c610cb9565b5b9060005260206000209060030201600080820160006101000a81549060ff02191690556001820160006103609190610712565b600282016000905550508067ffffffffffffffff163373ffffffffffffffffffffffffffffffffffffffff167fae45030fab4b47fe9274669e0ac6710bd0e407abf52a4909a53d981177bdba3e60405160405180910390a350565b606060008060003373ffffffffffffffffffffffffffffffffffffffff1673ffffffffffffffffffffffffffffffffffffffff168152602001908152602001600020905080805480602002602001604051908101604052809291908181526020016000905b8282101561050957838290600052602060002090600302016040518060600160405290816000820160009054906101000a900460ff1615151515815260200160018201805461046e90610d17565b80601f016020809104026020016040519081016040528092919081815260200182805461049a90610d17565b80156104e75780601f106104bc576101008083540402835291602001916104e7565b820191906000526020600020905b8154815290600101906020018083116104ca57829003601f168201915b5050505050815260200160028201548152505081526020019060010190610420565b5050505091505090565b60008060003373ffffffffffffffffffffffffffffffffffffffff1673ffffffffffffffffffffffffffffffffffffffff1681526020019081526020016000208467ffffffffffffffff168154811061056f5761056e610cb9565b5b906000526020600020906003020190508282826001019190610592929190610752565b508367ffffffffffffffff1683836040516105ae929190610ca0565b60405180910390203373ffffffffffffffffffffffffffffffffffffffff167fbfe1b540e257ccc3ec492962b0a3e3196470afca9d651a2d827f81537681808660405160405180910390a450505050565b60008060003373ffffffffffffffffffffffffffffffffffffffff1673ffffffffffffffffffffffffffffffffffffffff1681526020019081526020016000208267ffffffffffffffff168154811061065b5761065a610cb9565b5b9060005260206000209060030201905060018160000160006101000a81548160ff0219169083151502179055505050565b82805461069890610d17565b90600052602060002090601f0160209004810192826106ba5760008555610701565b82601f106106d357805160ff1916838001178555610701565b82800160010185558215610701579182015b828111156107005782518255916020019190600101906106e5565b5b50905061070e91906107d8565b5090565b50805461071e90610d17565b6000825580601f10610730575061074f565b601f01602090049060005260206000209081019061074e91906107d8565b5b50565b82805461075e90610d17565b90600052602060002090601f01602090048101928261078057600085556107c7565b82601f1061079957803560ff19168380011785556107c7565b828001600101855582156107c7579182015b828111156107c65782358255916020019190600101906107ab565b5b5090506107d491906107d8565b5090565b5b808211156107f15760008160009055506001016107d9565b5090565b600080fd5b600080fd5b600080fd5b600080fd5b600080fd5b60008083601f840112610824576108236107ff565b5b8235905067ffffffffffffffff81111561084157610840610804565b5b60208301915083600182028301111561085d5761085c610809565b5b9250929050565b6000819050919050565b61087781610864565b811461088257600080fd5b50565b6000813590506108948161086e565b92915050565b6000806000604084860312156108b3576108b26107f5565b5b600084013567ffffffffffffffff8111156108d1576108d06107fa565b5b6108dd8682870161080e565b935093505060206108f086828701610885565b9150509250925092565b600067ffffffffffffffff82169050919050565b610917816108fa565b811461092257600080fd5b50565b6000813590506109348161090e565b92915050565b6000602082840312156109505761094f6107f5565b5b600061095e84828501610925565b91505092915050565b600081519050919050565b600082825260208201905092915050565b6000819050602082019050919050565b60008115159050919050565b6109a881610993565b82525050565b600081519050919050565b600082825260208201905092915050565b60005b838110156109e85780820151818401526020810190506109cd565b838111156109f7576000848401525b50505050565b6000601f19601f8301169050919050565b6000610a19826109ae565b610a2381856109b9565b9350610a338185602086016109ca565b610a3c816109fd565b840191505092915050565b610a5081610864565b82525050565b6000606083016000830151610a6e600086018261099f565b5060208301518482036020860152610a868282610a0e565b9150506040830151610a9b6040860182610a47565b508091505092915050565b6000610ab28383610a56565b905092915050565b6000602082019050919050565b6000610ad282610967565b610adc8185610972565b935083602082028501610aee85610983565b8060005b85811015610b2a5784840389528151610b0b8582610aa6565b9450610b1683610aba565b925060208a01995050600181019050610af2565b50829750879550505050505092915050565b60006020820190508181036000830152610b568184610ac7565b905092915050565b600080600060408486031215610b7757610b766107f5565b5b6000610b8586828701610925565b935050602084013567ffffffffffffffff811115610ba657610ba56107fa565b5b610bb28682870161080e565b92509250509250925092565b600082825260208201905092915050565b7f63616e6e6f7420736574207461736b20746f20746865207a65726f206164647260008201527f6573730000000000000000000000000000000000000000000000000000000000602082015250565b6000610c2b602383610bbe565b9150610c3682610bcf565b604082019050919050565b60006020820190508181036000830152610c5a81610c1e565b9050919050565b600081905092915050565b82818337600083830152505050565b6000610c878385610c61565b9350610c94838584610c6c565b82840190509392505050565b6000610cad828486610c7b565b91508190509392505050565b7f4e487b7100000000000000000000000000000000000000000000000000000000600052603260045260246000fd5b7f4e487b7100000000000000000000000000000000000000000000000000000000600052602260045260246000fd5b60006002820490506001821680610d2f57607f821691505b60208210811415610d4357610d42610ce8565b5b5091905056fea26469706673582212206e3c12214b739dabbe5f78ac2a7a3d905dc961a1043ddf9a641a35b7ce85757464736f6c63430008090033",
  "linkReferences": {},
  "deployedLinkReferences": {}
}